{
  "contractName": "Dex",
  "abi": [
    {
      "anonymous": false,
      "inputs": [
        {
          "indexed": true,
          "internalType": "address",
          "name": "previousOwner",
          "type": "address"
        },
        {
          "indexed": true,
          "internalType": "address",
          "name": "newOwner",
          "type": "address"
        }
      ],
      "name": "OwnershipTransferred",
      "type": "event"
    },
    {
      "inputs": [
        {
          "internalType": "bytes32",
          "name": "ticker",
          "type": "bytes32"
        },
        {
          "internalType": "address",
          "name": "tokenAddress",
          "type": "address"
        }
      ],
      "name": "addToken",
      "outputs": [],
      "stateMutability": "nonpayable",
      "type": "function"
    },
    {
      "inputs": [
        {
          "internalType": "address",
          "name": "",
          "type": "address"
        },
        {
          "internalType": "bytes32",
          "name": "",
          "type": "bytes32"
        }
      ],
      "name": "balances",
      "outputs": [
        {
          "internalType": "uint256",
          "name": "",
          "type": "uint256"
        }
      ],
      "stateMutability": "view",
      "type": "function",
      "constant": true
    },
    {
      "inputs": [
        {
          "internalType": "uint256",
          "name": "amount",
          "type": "uint256"
        },
        {
          "internalType": "bytes32",
          "name": "ticker",
          "type": "bytes32"
        }
      ],
      "name": "deposit",
      "outputs": [],
      "stateMutability": "nonpayable",
      "type": "function"
    },
    {
      "inputs": [],
      "name": "depositETH",
      "outputs": [],
      "stateMutability": "payable",
      "type": "function",
      "payable": true
    },
    {
      "inputs": [],
      "name": "nextOrderId",
      "outputs": [
        {
          "internalType": "uint256",
          "name": "",
          "type": "uint256"
        }
      ],
      "stateMutability": "view",
      "type": "function",
      "constant": true
    },
    {
      "inputs": [
        {
          "internalType": "bytes32",
          "name": "",
          "type": "bytes32"
        },
        {
          "internalType": "uint256",
          "name": "",
          "type": "uint256"
        },
        {
          "internalType": "uint256",
          "name": "",
          "type": "uint256"
        }
      ],
      "name": "orderBook",
      "outputs": [
        {
          "internalType": "uint256",
          "name": "id",
          "type": "uint256"
        },
        {
          "internalType": "address",
          "name": "trader",
          "type": "address"
        },
        {
          "internalType": "enum Dex.Side",
          "name": "side",
          "type": "uint8"
        },
        {
          "internalType": "bytes32",
          "name": "ticker",
          "type": "bytes32"
        },
        {
          "internalType": "uint256",
          "name": "amount",
          "type": "uint256"
        },
        {
          "internalType": "uint256",
          "name": "price",
          "type": "uint256"
        }
      ],
      "stateMutability": "view",
      "type": "function",
      "constant": true
    },
    {
      "inputs": [],
      "name": "owner",
      "outputs": [
        {
          "internalType": "address",
          "name": "",
          "type": "address"
        }
      ],
      "stateMutability": "view",
      "type": "function",
      "constant": true
    },
    {
      "inputs": [],
      "name": "renounceOwnership",
      "outputs": [],
      "stateMutability": "nonpayable",
      "type": "function"
    },
    {
      "inputs": [
        {
          "internalType": "uint256",
          "name": "",
          "type": "uint256"
        }
      ],
      "name": "tokenList",
      "outputs": [
        {
          "internalType": "bytes32",
          "name": "",
          "type": "bytes32"
        }
      ],
      "stateMutability": "view",
      "type": "function",
      "constant": true
    },
    {
      "inputs": [
        {
          "internalType": "bytes32",
          "name": "",
          "type": "bytes32"
        }
      ],
      "name": "tokenMapping",
      "outputs": [
        {
          "internalType": "bytes32",
          "name": "ticker",
          "type": "bytes32"
        },
        {
          "internalType": "address",
          "name": "tokenAddress",
          "type": "address"
        }
      ],
      "stateMutability": "view",
      "type": "function",
      "constant": true
    },
    {
      "inputs": [
        {
          "internalType": "address",
          "name": "newOwner",
          "type": "address"
        }
      ],
      "name": "transferOwnership",
      "outputs": [],
      "stateMutability": "nonpayable",
      "type": "function"
    },
    {
      "inputs": [
        {
          "internalType": "uint256",
          "name": "amount",
          "type": "uint256"
        },
        {
          "internalType": "bytes32",
          "name": "ticker",
          "type": "bytes32"
        }
      ],
      "name": "withdraw",
      "outputs": [],
      "stateMutability": "nonpayable",
      "type": "function"
    },
    {
      "inputs": [
        {
          "internalType": "bytes32",
          "name": "ticker",
          "type": "bytes32"
        },
        {
          "internalType": "enum Dex.Side",
          "name": "side",
          "type": "uint8"
        }
      ],
      "name": "getOrderBook",
      "outputs": [
        {
          "components": [
            {
              "internalType": "uint256",
              "name": "id",
              "type": "uint256"
            },
            {
              "internalType": "address",
              "name": "trader",
              "type": "address"
            },
            {
              "internalType": "enum Dex.Side",
              "name": "side",
              "type": "uint8"
            },
            {
              "internalType": "bytes32",
              "name": "ticker",
              "type": "bytes32"
            },
            {
              "internalType": "uint256",
              "name": "amount",
              "type": "uint256"
            },
            {
              "internalType": "uint256",
              "name": "price",
              "type": "uint256"
            }
          ],
          "internalType": "struct Dex.Order[]",
          "name": "",
          "type": "tuple[]"
        }
      ],
      "stateMutability": "view",
      "type": "function",
      "constant": true
    },
    {
      "inputs": [
        {
          "internalType": "enum Dex.Side",
          "name": "side",
          "type": "uint8"
        },
        {
          "internalType": "bytes32",
          "name": "ticker",
          "type": "bytes32"
        },
        {
          "internalType": "uint256",
          "name": "amount",
          "type": "uint256"
        },
        {
          "internalType": "uint256",
          "name": "price",
          "type": "uint256"
        }
      ],
      "name": "createLimitOrder",
      "outputs": [],
      "stateMutability": "nonpayable",
      "type": "function"
    }
  ],
  "bytecode": "0x608060405260006004553480156200001657600080fd5b50620000376200002b6200003d60201b60201c565b6200004560201b60201c565b62000109565b600033905090565b60008060009054906101000a900473ffffffffffffffffffffffffffffffffffffffff169050816000806101000a81548173ffffffffffffffffffffffffffffffffffffffff021916908373ffffffffffffffffffffffffffffffffffffffff1602179055508173ffffffffffffffffffffffffffffffffffffffff168173ffffffffffffffffffffffffffffffffffffffff167f8be0079c531659141344cd1fd0a4f28419497f9722a3daafe3b4186f6b6457e060405160405180910390a35050565b6126ac80620001196000396000f3fe6080604052600436106100dd5760003560e01c80639776aacf1161007f578063ba58ea6811610059578063ba58ea68146102c4578063c9630cb014610301578063f2fde38b1461032a578063f6326fb314610353576100dd565b80639776aacf146102355780639ead72221461025e578063a8d2021a1461029b576100dd565b8063667cb4ba116100bb578063667cb4ba1461018c5780636f3b62f9146101ca578063715018a6146101f35780638da5cb5b1461020a576100dd565b80630bb431b6146100e25780631f14df69146101245780632a58b33014610161575b600080fd5b3480156100ee57600080fd5b5061010960048036038101906101049190611b72565b61035d565b60405161011b96959493929190611c9b565b60405180910390f35b34801561013057600080fd5b5061014b60048036038101906101469190611d28565b6103f0565b6040516101589190611d68565b60405180910390f35b34801561016d57600080fd5b50610176610415565b6040516101839190611d68565b60405180910390f35b34801561019857600080fd5b506101b360048036038101906101ae9190611d83565b61041b565b6040516101c1929190611db0565b60405180910390f35b3480156101d657600080fd5b506101f160048036038101906101ec9190611dfe565b61045f565b005b3480156101ff57600080fd5b50610208610f57565b005b34801561021657600080fd5b5061021f610fdf565b60405161022c9190611e65565b60405180910390f35b34801561024157600080fd5b5061025c60048036038101906102579190611e80565b611008565b005b34801561026a57600080fd5b5061028560048036038101906102809190611ec0565b611143565b6040516102929190611eed565b60405180910390f35b3480156102a757600080fd5b506102c260048036038101906102bd9190611f08565b611167565b005b3480156102d057600080fd5b506102eb60048036038101906102e69190611f48565b611482565b6040516102f891906120ee565b60405180910390f35b34801561030d57600080fd5b5061032860048036038101906103239190611f08565b6115d1565b005b34801561033657600080fd5b50610351600480360381019061034c9190612110565b61182f565b005b61035b611927565b005b6005602052826000526040600020602052816000526040600020818154811061038557600080fd5b906000526020600020906005020160009250925050508060000154908060010160009054906101000a900473ffffffffffffffffffffffffffffffffffffffff16908060010160149054906101000a900460ff16908060020154908060030154908060040154905086565b6003602052816000526040600020602052806000526040600020600091509150505481565b60045481565b60016020528060005260406000206000915090508060000154908060010160009054906101000a900473ffffffffffffffffffffffffffffffffffffffff16905082565b6000600181111561047357610472611c15565b5b84600181111561048657610485611c15565b5b14156105205761049f81836119f390919063ffffffff16565b600360003373ffffffffffffffffffffffffffffffffffffffff1673ffffffffffffffffffffffffffffffffffffffff16815260200190815260200160002060007f4554480000000000000000000000000000000000000000000000000000000000815260200190815260200160002054101561051b57600080fd5b6105ab565b60018081111561053357610532611c15565b5b84600181111561054657610545611c15565b5b14156105aa5781600360003373ffffffffffffffffffffffffffffffffffffffff1673ffffffffffffffffffffffffffffffffffffffff16815260200190815260200160002060008581526020019081526020016000205410156105a957600080fd5b5b5b60006005600085815260200190815260200160002060008660018111156105d5576105d4611c15565b5b81526020019081526020016000209050806040518060c0016040528060045481526020013373ffffffffffffffffffffffffffffffffffffffff16815260200187600181111561062857610627611c15565b5b81526020018681526020018581526020018481525090806001815401808255809150506001900390600052602060002090600502016000909190919091506000820151816000015560208201518160010160006101000a81548173ffffffffffffffffffffffffffffffffffffffff021916908373ffffffffffffffffffffffffffffffffffffffff16021790555060408201518160010160146101000a81548160ff021916908360018111156106e2576106e1611c15565b5b0217905550606082015181600201556080820151816003015560a08201518160040155505060008082805490501161071b57600061072d565b6001828054905061072c919061216c565b5b90506000600181111561074357610742611c15565b5b86600181111561075657610755611c15565b5b1415610b455761076f83856119f390919063ffffffff16565b600360003373ffffffffffffffffffffffffffffffffffffffff1673ffffffffffffffffffffffffffffffffffffffff16815260200190815260200160002060007f455448000000000000000000000000000000000000000000000000000000000081526020019081526020016000205410156107eb57600080fd5b5b6000811115610b4057818181548110610808576108076121a0565b5b90600052602060002090600502016004015482600183610828919061216c565b81548110610839576108386121a0565b5b906000526020600020906005020160040154111561085657610b40565b600082600183610866919061216c565b81548110610877576108766121a0565b5b90600052602060002090600502016040518060c0016040529081600082015481526020016001820160009054906101000a900473ffffffffffffffffffffffffffffffffffffffff1673ffffffffffffffffffffffffffffffffffffffff1673ffffffffffffffffffffffffffffffffffffffff1681526020016001820160149054906101000a900460ff16600181111561091557610914611c15565b5b600181111561092757610926611c15565b5b81526020016002820154815260200160038201548152602001600482015481525050905082828154811061095e5761095d6121a0565b5b90600052602060002090600502018360018461097a919061216c565b8154811061098b5761098a6121a0565b5b9060005260206000209060050201600082015481600001556001820160009054906101000a900473ffffffffffffffffffffffffffffffffffffffff168160010160006101000a81548173ffffffffffffffffffffffffffffffffffffffff021916908373ffffffffffffffffffffffffffffffffffffffff1602179055506001820160149054906101000a900460ff168160010160146101000a81548160ff02191690836001811115610a4257610a41611c15565b5b021790555060028201548160020155600382015481600301556004820154816004015590505080838381548110610a7c57610a7b6121a0565b5b90600052602060002090600502016000820151816000015560208201518160010160006101000a81548173ffffffffffffffffffffffffffffffffffffffff021916908373ffffffffffffffffffffffffffffffffffffffff16021790555060408201518160010160146101000a81548160ff02191690836001811115610b0657610b05611c15565b5b0217905550606082015181600201556080820151816003015560a082015181600401559050508180610b37906121cf565b925050506107ec565b610f37565b600180811115610b5857610b57611c15565b5b866001811115610b6b57610b6a611c15565b5b1415610f3657610b8483856119f390919063ffffffff16565b600360003373ffffffffffffffffffffffffffffffffffffffff1673ffffffffffffffffffffffffffffffffffffffff1681526020019081526020016000206000878152602001908152602001600020541015610be057600080fd5b5b6000811115610f3557818181548110610bfd57610bfc6121a0565b5b90600052602060002090600502016004015482600183610c1d919061216c565b81548110610c2e57610c2d6121a0565b5b9060005260206000209060050201600401541015610c4b57610f35565b600082600183610c5b919061216c565b81548110610c6c57610c6b6121a0565b5b90600052602060002090600502016040518060c0016040529081600082015481526020016001820160009054906101000a900473ffffffffffffffffffffffffffffffffffffffff1673ffffffffffffffffffffffffffffffffffffffff1673ffffffffffffffffffffffffffffffffffffffff1681526020016001820160149054906101000a900460ff166001811115610d0a57610d09611c15565b5b6001811115610d1c57610d1b611c15565b5b815260200160028201548152602001600382015481526020016004820154815250509050828281548110610d5357610d526121a0565b5b906000526020600020906005020183600184610d6f919061216c565b81548110610d8057610d7f6121a0565b5b9060005260206000209060050201600082015481600001556001820160009054906101000a900473ffffffffffffffffffffffffffffffffffffffff168160010160006101000a81548173ffffffffffffffffffffffffffffffffffffffff021916908373ffffffffffffffffffffffffffffffffffffffff1602179055506001820160149054906101000a900460ff168160010160146101000a81548160ff02191690836001811115610e3757610e36611c15565b5b021790555060028201548160020155600382015481600301556004820154816004015590505080838381548110610e7157610e706121a0565b5b90600052602060002090600502016000820151816000015560208201518160010160006101000a81548173ffffffffffffffffffffffffffffffffffffffff021916908373ffffffffffffffffffffffffffffffffffffffff16021790555060408201518160010160146101000a81548160ff02191690836001811115610efb57610efa611c15565b5b0217905550606082015181600201556080820151816003015560a082015181600401559050508180610f2c906121cf565b92505050610be1565b5b5b60046000815480929190610f4a906121f9565b9190505550505050505050565b610f5f611a09565b73ffffffffffffffffffffffffffffffffffffffff16610f7d610fdf565b73ffffffffffffffffffffffffffffffffffffffff1614610fd3576040517f08c379a0000000000000000000000000000000000000000000000000000000008152600401610fca9061229f565b60405180910390fd5b610fdd6000611a11565b565b60008060009054906101000a900473ffffffffffffffffffffffffffffffffffffffff16905090565b611010611a09565b73ffffffffffffffffffffffffffffffffffffffff1661102e610fdf565b73ffffffffffffffffffffffffffffffffffffffff1614611084576040517f08c379a000000000000000000000000000000000000000000000000000000000815260040161107b9061229f565b60405180910390fd5b60405180604001604052808381526020018273ffffffffffffffffffffffffffffffffffffffff16815250600160008481526020019081526020016000206000820151816000015560208201518160010160006101000a81548173ffffffffffffffffffffffffffffffffffffffff021916908373ffffffffffffffffffffffffffffffffffffffff16021790555090505060028290806001815401808255809150506001900390600052602060002001600090919091909150555050565b6002818154811061115357600080fd5b906000526020600020016000915090505481565b80600073ffffffffffffffffffffffffffffffffffffffff166001600083815260200190815260200160002060010160009054906101000a900473ffffffffffffffffffffffffffffffffffffffff1673ffffffffffffffffffffffffffffffffffffffff16141561120e576040517f08c379a00000000000000000000000000000000000000000000000000000000081526004016112059061230b565b60405180910390fd5b600073ffffffffffffffffffffffffffffffffffffffff166001600084815260200190815260200160002060010160009054906101000a900473ffffffffffffffffffffffffffffffffffffffff1673ffffffffffffffffffffffffffffffffffffffff16141561127e57600080fd5b600360003373ffffffffffffffffffffffffffffffffffffffff1673ffffffffffffffffffffffffffffffffffffffff168152602001908152602001600020600083815260200190815260200160002054831115611311576040517f08c379a000000000000000000000000000000000000000000000000000000000815260040161130890612377565b60405180910390fd5b61137483600360003373ffffffffffffffffffffffffffffffffffffffff1673ffffffffffffffffffffffffffffffffffffffff168152602001908152602001600020600085815260200190815260200160002054611ad590919063ffffffff16565b600360003373ffffffffffffffffffffffffffffffffffffffff1673ffffffffffffffffffffffffffffffffffffffff1681526020019081526020016000206000848152602001908152602001600020819055506001600083815260200190815260200160002060010160009054906101000a900473ffffffffffffffffffffffffffffffffffffffff1673ffffffffffffffffffffffffffffffffffffffff1663a9059cbb33856040518363ffffffff1660e01b8152600401611439929190612397565b6020604051808303816000875af1158015611458573d6000803e3d6000fd5b505050506040513d601f19601f8201168201806040525081019061147c91906123f8565b50505050565b60606005600084815260200190815260200160002060008360018111156114ac576114ab611c15565b5b8152602001908152602001600020805480602002602001604051908101604052809291908181526020016000905b828210156115c557838290600052602060002090600502016040518060c0016040529081600082015481526020016001820160009054906101000a900473ffffffffffffffffffffffffffffffffffffffff1673ffffffffffffffffffffffffffffffffffffffff1673ffffffffffffffffffffffffffffffffffffffff1681526020016001820160149054906101000a900460ff16600181111561158257611581611c15565b5b600181111561159457611593611c15565b5b81526020016002820154815260200160038201548152602001600482015481525050815260200190600101906114da565b50505050905092915050565b80600073ffffffffffffffffffffffffffffffffffffffff166001600083815260200190815260200160002060010160009054906101000a900473ffffffffffffffffffffffffffffffffffffffff1673ffffffffffffffffffffffffffffffffffffffff161415611678576040517f08c379a000000000000000000000000000000000000000000000000000000000815260040161166f9061230b565b60405180910390fd5b60008310156116bc576040517f08c379a00000000000000000000000000000000000000000000000000000000081526004016116b390612471565b60405180910390fd5b6001600083815260200190815260200160002060010160009054906101000a900473ffffffffffffffffffffffffffffffffffffffff1673ffffffffffffffffffffffffffffffffffffffff166323b872dd3330866040518463ffffffff1660e01b815260040161172f93929190612491565b6020604051808303816000875af115801561174e573d6000803e3d6000fd5b505050506040513d601f19601f8201168201806040525081019061177291906123f8565b506117d683600360003373ffffffffffffffffffffffffffffffffffffffff1673ffffffffffffffffffffffffffffffffffffffff168152602001908152602001600020600085815260200190815260200160002054611aeb90919063ffffffff16565b600360003373ffffffffffffffffffffffffffffffffffffffff1673ffffffffffffffffffffffffffffffffffffffff168152602001908152602001600020600084815260200190815260200160002081905550505050565b611837611a09565b73ffffffffffffffffffffffffffffffffffffffff16611855610fdf565b73ffffffffffffffffffffffffffffffffffffffff16146118ab576040517f08c379a00000000000000000000000000000000000000000000000000000000081526004016118a29061229f565b60405180910390fd5b600073ffffffffffffffffffffffffffffffffffffffff168173ffffffffffffffffffffffffffffffffffffffff16141561191b576040517f08c379a00000000000000000000000000000000000000000000000000000000081526004016119129061253a565b60405180910390fd5b61192481611a11565b50565b6000341161196a576040517f08c379a0000000000000000000000000000000000000000000000000000000008152600401611961906125a6565b60405180910390fd5b34600360003373ffffffffffffffffffffffffffffffffffffffff1673ffffffffffffffffffffffffffffffffffffffff16815260200190815260200160002060007f4554480000000000000000000000000000000000000000000000000000000000815260200190815260200160002060008282546119ea91906125c6565b92505081905550565b60008183611a01919061261c565b905092915050565b600033905090565b60008060009054906101000a900473ffffffffffffffffffffffffffffffffffffffff169050816000806101000a81548173ffffffffffffffffffffffffffffffffffffffff021916908373ffffffffffffffffffffffffffffffffffffffff1602179055508173ffffffffffffffffffffffffffffffffffffffff168173ffffffffffffffffffffffffffffffffffffffff167f8be0079c531659141344cd1fd0a4f28419497f9722a3daafe3b4186f6b6457e060405160405180910390a35050565b60008183611ae3919061216c565b905092915050565b60008183611af991906125c6565b905092915050565b600080fd5b6000819050919050565b611b1981611b06565b8114611b2457600080fd5b50565b600081359050611b3681611b10565b92915050565b6000819050919050565b611b4f81611b3c565b8114611b5a57600080fd5b50565b600081359050611b6c81611b46565b92915050565b600080600060608486031215611b8b57611b8a611b01565b5b6000611b9986828701611b27565b9350506020611baa86828701611b5d565b9250506040611bbb86828701611b5d565b9150509250925092565b611bce81611b3c565b82525050565b600073ffffffffffffffffffffffffffffffffffffffff82169050919050565b6000611bff82611bd4565b9050919050565b611c0f81611bf4565b82525050565b7f4e487b7100000000000000000000000000000000000000000000000000000000600052602160045260246000fd5b60028110611c5557611c54611c15565b5b50565b6000819050611c6682611c44565b919050565b6000611c7682611c58565b9050919050565b611c8681611c6b565b82525050565b611c9581611b06565b82525050565b600060c082019050611cb06000830189611bc5565b611cbd6020830188611c06565b611cca6040830187611c7d565b611cd76060830186611c8c565b611ce46080830185611bc5565b611cf160a0830184611bc5565b979650505050505050565b611d0581611bf4565b8114611d1057600080fd5b50565b600081359050611d2281611cfc565b92915050565b60008060408385031215611d3f57611d3e611b01565b5b6000611d4d85828601611d13565b9250506020611d5e85828601611b27565b9150509250929050565b6000602082019050611d7d6000830184611bc5565b92915050565b600060208284031215611d9957611d98611b01565b5b6000611da784828501611b27565b91505092915050565b6000604082019050611dc56000830185611c8c565b611dd26020830184611c06565b9392505050565b60028110611de657600080fd5b50565b600081359050611df881611dd9565b92915050565b60008060008060808587031215611e1857611e17611b01565b5b6000611e2687828801611de9565b9450506020611e3787828801611b27565b9350506040611e4887828801611b5d565b9250506060611e5987828801611b5d565b91505092959194509250565b6000602082019050611e7a6000830184611c06565b92915050565b60008060408385031215611e9757611e96611b01565b5b6000611ea585828601611b27565b9250506020611eb685828601611d13565b9150509250929050565b600060208284031215611ed657611ed5611b01565b5b6000611ee484828501611b5d565b91505092915050565b6000602082019050611f026000830184611c8c565b92915050565b60008060408385031215611f1f57611f1e611b01565b5b6000611f2d85828601611b5d565b9250506020611f3e85828601611b27565b9150509250929050565b60008060408385031215611f5f57611f5e611b01565b5b6000611f6d85828601611b27565b9250506020611f7e85828601611de9565b9150509250929050565b600081519050919050565b600082825260208201905092915050565b6000819050602082019050919050565b611fbd81611b3c565b82525050565b611fcc81611bf4565b82525050565b611fdb81611c6b565b82525050565b611fea81611b06565b82525050565b60c0820160008201516120066000850182611fb4565b5060208201516120196020850182611fc3565b50604082015161202c6040850182611fd2565b50606082015161203f6060850182611fe1565b5060808201516120526080850182611fb4565b5060a082015161206560a0850182611fb4565b50505050565b60006120778383611ff0565b60c08301905092915050565b6000602082019050919050565b600061209b82611f88565b6120a58185611f93565b93506120b083611fa4565b8060005b838110156120e15781516120c8888261206b565b97506120d383612083565b9250506001810190506120b4565b5085935050505092915050565b600060208201905081810360008301526121088184612090565b905092915050565b60006020828403121561212657612125611b01565b5b600061213484828501611d13565b91505092915050565b7f4e487b7100000000000000000000000000000000000000000000000000000000600052601160045260246000fd5b600061217782611b3c565b915061218283611b3c565b9250828210156121955761219461213d565b5b828203905092915050565b7f4e487b7100000000000000000000000000000000000000000000000000000000600052603260045260246000fd5b60006121da82611b3c565b915060008214156121ee576121ed61213d565b5b600182039050919050565b600061220482611b3c565b91507fffffffffffffffffffffffffffffffffffffffffffffffffffffffffffffffff8214156122375761223661213d565b5b600182019050919050565b600082825260208201905092915050565b7f4f776e61626c653a2063616c6c6572206973206e6f7420746865206f776e6572600082015250565b6000612289602083612242565b915061229482612253565b602082019050919050565b600060208201905081810360008301526122b88161227c565b9050919050565b7f546f6b656e20646f6573206e6f74206578697374000000000000000000000000600082015250565b60006122f5601483612242565b9150612300826122bf565b602082019050919050565b60006020820190508181036000830152612324816122e8565b9050919050565b7f496e73756666696369656e742066756e64732e00000000000000000000000000600082015250565b6000612361601383612242565b915061236c8261232b565b602082019050919050565b6000602082019050818103600083015261239081612354565b9050919050565b60006040820190506123ac6000830185611c06565b6123b96020830184611bc5565b9392505050565b60008115159050919050565b6123d5816123c0565b81146123e057600080fd5b50565b6000815190506123f2816123cc565b92915050565b60006020828403121561240e5761240d611b01565b5b600061241c848285016123e3565b91505092915050565b7f4465706f73697420616d6f756e742067726561746572207468616e20302e0000600082015250565b600061245b601e83612242565b915061246682612425565b602082019050919050565b6000602082019050818103600083015261248a8161244e565b9050919050565b60006060820190506124a66000830186611c06565b6124b36020830185611c06565b6124c06040830184611bc5565b949350505050565b7f4f776e61626c653a206e6577206f776e657220697320746865207a65726f206160008201527f6464726573730000000000000000000000000000000000000000000000000000602082015250565b6000612524602683612242565b915061252f826124c8565b604082019050919050565b6000602082019050818103600083015261255381612517565b9050919050565b7f596f752063616e6e6f74206465706f7369742061207a65726f20616d6f756e74600082015250565b6000612590602083612242565b915061259b8261255a565b602082019050919050565b600060208201905081810360008301526125bf81612583565b9050919050565b60006125d182611b3c565b91506125dc83611b3c565b9250827fffffffffffffffffffffffffffffffffffffffffffffffffffffffffffffffff038211156126115761261061213d565b5b828201905092915050565b600061262782611b3c565b915061263283611b3c565b9250817fffffffffffffffffffffffffffffffffffffffffffffffffffffffffffffffff048311821515161561266b5761266a61213d565b5b82820290509291505056fea26469706673582212202c9a4355865c453f7cf71f43f2c72064119cbfe6d5bc98f8643a75ee413e728864736f6c634300080b0033",
  "immutableReferences": {},
  "source": "pragma solidity ^0.8.0;\npragma experimental ABIEncoderV2;\n\nimport \"./Wallet.sol\";\n\ncontract Dex is Wallet {\n    using SafeMath for uint256;\n\n    enum Side {\n        BUY,\n        SELL\n    }\n\n    struct Order {\n        uint256 id;\n        address trader;\n        Side side;\n        bytes32 ticker;\n        uint256 amount;\n        uint256 price;\n    }\n\n    uint256 public nextOrderId = 0;\n\n    mapping(bytes32 => mapping(uint256 => Order[])) public orderBook;\n\n    function getOrderBook(bytes32 ticker, Side side)\n        public\n        view\n        returns (Order[] memory)\n    {\n        return orderBook[ticker][uint256(side)];\n    }\n\n    function createLimitOrder(\n        Side side,\n        bytes32 ticker,\n        uint256 amount,\n        uint256 price\n    ) public {\n          if(side == Side.BUY){\n            require(balances[msg.sender][\"ETH\"] >= amount.mul(price));\n        }\n        else if(side == Side.SELL){\n            require(balances[msg.sender][ticker] >= amount);\n        }\n\n        Order[] storage listOrders = orderBook[ticker][uint256(side)];\n\n        listOrders.push(\n            Order(nextOrderId, msg.sender, side, ticker, amount, price)\n        );\n\n        uint i = listOrders.length > 0 ? listOrders.length -1 : 0;\n        \n        if (side == Side.BUY) {\n            require(balances[msg.sender][\"ETH\"] >= amount.mul(price));\n\n                while(i > 0) {\n                    if (listOrders[i - 1].price > listOrders[i].price) {\n                        break;\n                    }\n\n                    Order memory orderToMove = listOrders[i - 1];\n                    listOrders[i - 1] = listOrders[i];\n                    listOrders[i] = orderToMove;\n                    i--;\n\n                } \n        } else if (side == Side.SELL) {\n            require(balances[msg.sender][ticker] >= amount.mul(price));\n\n            while(i > 0) {\n                if (listOrders[i - 1].price < listOrders[i].price) {\n                    break;\n                }\n\n                Order memory orderToMove = listOrders[i - 1];\n                listOrders[i - 1] = listOrders[i];\n                listOrders[i] = orderToMove;\n                i--;\n\n            }\n        }\n        nextOrderId++;\n    }\n\n}\n",
  "sourcePath": "/Users/admin/Documents/Ethereum201/dex/contracts/Dex.sol",
  "compiler": {
    "name": "solc",
    "version": "0.8.11+commit.d7f03943.Emscripten.clang"
  },
  "schemaVersion": "3.4.3",
  "updatedAt": "2022-01-28T17:24:13.953Z",
  "networkType": "ethereum",
  "devdoc": {
    "kind": "dev",
    "methods": {
      "owner()": {
        "details": "Returns the address of the current owner."
      },
      "renounceOwnership()": {
        "details": "Leaves the contract without owner. It will not be possible to call `onlyOwner` functions anymore. Can only be called by the current owner. NOTE: Renouncing ownership will leave the contract without an owner, thereby removing any functionality that is only available to the owner."
      },
      "transferOwnership(address)": {
        "details": "Transfers ownership of the contract to a new account (`newOwner`). Can only be called by the current owner."
      }
    },
    "version": 1
  },
  "userdoc": {
    "kind": "user",
    "methods": {},
    "version": 1
  }
}