{
  "contractName": "Wallet",
  "abi": [
    {
      "anonymous": false,
      "inputs": [
        {
          "indexed": true,
          "internalType": "address",
          "name": "previousOwner",
          "type": "address"
        },
        {
          "indexed": true,
          "internalType": "address",
          "name": "newOwner",
          "type": "address"
        }
      ],
      "name": "OwnershipTransferred",
      "type": "event"
    },
    {
      "inputs": [
        {
          "internalType": "address",
          "name": "",
          "type": "address"
        },
        {
          "internalType": "bytes32",
          "name": "",
          "type": "bytes32"
        }
      ],
      "name": "balances",
      "outputs": [
        {
          "internalType": "uint256",
          "name": "",
          "type": "uint256"
        }
      ],
      "stateMutability": "view",
      "type": "function"
    },
    {
      "inputs": [],
      "name": "owner",
      "outputs": [
        {
          "internalType": "address",
          "name": "",
          "type": "address"
        }
      ],
      "stateMutability": "view",
      "type": "function"
    },
    {
      "inputs": [],
      "name": "renounceOwnership",
      "outputs": [],
      "stateMutability": "nonpayable",
      "type": "function"
    },
    {
      "inputs": [
        {
          "internalType": "uint256",
          "name": "",
          "type": "uint256"
        }
      ],
      "name": "tokenList",
      "outputs": [
        {
          "internalType": "bytes32",
          "name": "",
          "type": "bytes32"
        }
      ],
      "stateMutability": "view",
      "type": "function"
    },
    {
      "inputs": [
        {
          "internalType": "bytes32",
          "name": "",
          "type": "bytes32"
        }
      ],
      "name": "tokenMapping",
      "outputs": [
        {
          "internalType": "bytes32",
          "name": "ticker",
          "type": "bytes32"
        },
        {
          "internalType": "address",
          "name": "tokenAddress",
          "type": "address"
        }
      ],
      "stateMutability": "view",
      "type": "function"
    },
    {
      "inputs": [
        {
          "internalType": "address",
          "name": "newOwner",
          "type": "address"
        }
      ],
      "name": "transferOwnership",
      "outputs": [],
      "stateMutability": "nonpayable",
      "type": "function"
    },
    {
      "inputs": [
        {
          "internalType": "bytes32",
          "name": "ticker",
          "type": "bytes32"
        },
        {
          "internalType": "address",
          "name": "tokenAddress",
          "type": "address"
        }
      ],
      "name": "addToken",
      "outputs": [],
      "stateMutability": "nonpayable",
      "type": "function"
    },
    {
      "inputs": [
        {
          "internalType": "uint256",
          "name": "amount",
          "type": "uint256"
        },
        {
          "internalType": "bytes32",
          "name": "ticker",
          "type": "bytes32"
        }
      ],
      "name": "deposit",
      "outputs": [],
      "stateMutability": "nonpayable",
      "type": "function"
    },
    {
      "inputs": [],
      "name": "depositETH",
      "outputs": [],
      "stateMutability": "payable",
      "type": "function"
    },
    {
      "inputs": [
        {
          "internalType": "uint256",
          "name": "amount",
          "type": "uint256"
        },
        {
          "internalType": "bytes32",
          "name": "ticker",
          "type": "bytes32"
        }
      ],
      "name": "withdraw",
      "outputs": [],
      "stateMutability": "nonpayable",
      "type": "function"
    }
  ],
  "bytecode": "0x608060405234801561001057600080fd5b5061002d61002261003260201b60201c565b61003a60201b60201c565b6100fe565b600033905090565b60008060009054906101000a900473ffffffffffffffffffffffffffffffffffffffff169050816000806101000a81548173ffffffffffffffffffffffffffffffffffffffff021916908373ffffffffffffffffffffffffffffffffffffffff1602179055508173ffffffffffffffffffffffffffffffffffffffff168173ffffffffffffffffffffffffffffffffffffffff167f8be0079c531659141344cd1fd0a4f28419497f9722a3daafe3b4186f6b6457e060405160405180910390a35050565b61141c8061010d6000396000f3fe6080604052600436106100915760003560e01c80639ead7222116100595780639ead72221461017c578063a8d2021a146101b9578063c9630cb0146101e2578063f2fde38b1461020b578063f6326fb31461023457610091565b80631f14df6914610096578063667cb4ba146100d3578063715018a6146101115780638da5cb5b146101285780639776aacf14610153575b600080fd5b3480156100a257600080fd5b506100bd60048036038101906100b89190610d85565b61023e565b6040516100ca9190610dde565b60405180910390f35b3480156100df57600080fd5b506100fa60048036038101906100f59190610df9565b610263565b604051610108929190610e44565b60405180910390f35b34801561011d57600080fd5b506101266102a7565b005b34801561013457600080fd5b5061013d61032f565b60405161014a9190610e6d565b60405180910390f35b34801561015f57600080fd5b5061017a60048036038101906101759190610e88565b610358565b005b34801561018857600080fd5b506101a3600480360381019061019e9190610ef4565b610493565b6040516101b09190610f21565b60405180910390f35b3480156101c557600080fd5b506101e060048036038101906101db9190610f3c565b6104b7565b005b3480156101ee57600080fd5b5061020960048036038101906102049190610f3c565b6107d2565b005b34801561021757600080fd5b50610232600480360381019061022d9190610f7c565b610a30565b005b61023c610b28565b005b6003602052816000526040600020602052806000526040600020600091509150505481565b60016020528060005260406000206000915090508060000154908060010160009054906101000a900473ffffffffffffffffffffffffffffffffffffffff16905082565b6102af610bf4565b73ffffffffffffffffffffffffffffffffffffffff166102cd61032f565b73ffffffffffffffffffffffffffffffffffffffff1614610323576040517f08c379a000000000000000000000000000000000000000000000000000000000815260040161031a90611006565b60405180910390fd5b61032d6000610bfc565b565b60008060009054906101000a900473ffffffffffffffffffffffffffffffffffffffff16905090565b610360610bf4565b73ffffffffffffffffffffffffffffffffffffffff1661037e61032f565b73ffffffffffffffffffffffffffffffffffffffff16146103d4576040517f08c379a00000000000000000000000000000000000000000000000000000000081526004016103cb90611006565b60405180910390fd5b60405180604001604052808381526020018273ffffffffffffffffffffffffffffffffffffffff16815250600160008481526020019081526020016000206000820151816000015560208201518160010160006101000a81548173ffffffffffffffffffffffffffffffffffffffff021916908373ffffffffffffffffffffffffffffffffffffffff16021790555090505060028290806001815401808255809150506001900390600052602060002001600090919091909150555050565b600281815481106104a357600080fd5b906000526020600020016000915090505481565b80600073ffffffffffffffffffffffffffffffffffffffff166001600083815260200190815260200160002060010160009054906101000a900473ffffffffffffffffffffffffffffffffffffffff1673ffffffffffffffffffffffffffffffffffffffff16141561055e576040517f08c379a000000000000000000000000000000000000000000000000000000000815260040161055590611072565b60405180910390fd5b600073ffffffffffffffffffffffffffffffffffffffff166001600084815260200190815260200160002060010160009054906101000a900473ffffffffffffffffffffffffffffffffffffffff1673ffffffffffffffffffffffffffffffffffffffff1614156105ce57600080fd5b600360003373ffffffffffffffffffffffffffffffffffffffff1673ffffffffffffffffffffffffffffffffffffffff168152602001908152602001600020600083815260200190815260200160002054831115610661576040517f08c379a0000000000000000000000000000000000000000000000000000000008152600401610658906110de565b60405180910390fd5b6106c483600360003373ffffffffffffffffffffffffffffffffffffffff1673ffffffffffffffffffffffffffffffffffffffff168152602001908152602001600020600085815260200190815260200160002054610cc090919063ffffffff16565b600360003373ffffffffffffffffffffffffffffffffffffffff1673ffffffffffffffffffffffffffffffffffffffff1681526020019081526020016000206000848152602001908152602001600020819055506001600083815260200190815260200160002060010160009054906101000a900473ffffffffffffffffffffffffffffffffffffffff1673ffffffffffffffffffffffffffffffffffffffff1663a9059cbb33856040518363ffffffff1660e01b81526004016107899291906110fe565b6020604051808303816000875af11580156107a8573d6000803e3d6000fd5b505050506040513d601f19601f820116820180604052508101906107cc919061115f565b50505050565b80600073ffffffffffffffffffffffffffffffffffffffff166001600083815260200190815260200160002060010160009054906101000a900473ffffffffffffffffffffffffffffffffffffffff1673ffffffffffffffffffffffffffffffffffffffff161415610879576040517f08c379a000000000000000000000000000000000000000000000000000000000815260040161087090611072565b60405180910390fd5b60008310156108bd576040517f08c379a00000000000000000000000000000000000000000000000000000000081526004016108b4906111d8565b60405180910390fd5b6001600083815260200190815260200160002060010160009054906101000a900473ffffffffffffffffffffffffffffffffffffffff1673ffffffffffffffffffffffffffffffffffffffff166323b872dd3330866040518463ffffffff1660e01b8152600401610930939291906111f8565b6020604051808303816000875af115801561094f573d6000803e3d6000fd5b505050506040513d601f19601f82011682018060405250810190610973919061115f565b506109d783600360003373ffffffffffffffffffffffffffffffffffffffff1673ffffffffffffffffffffffffffffffffffffffff168152602001908152602001600020600085815260200190815260200160002054610cd690919063ffffffff16565b600360003373ffffffffffffffffffffffffffffffffffffffff1673ffffffffffffffffffffffffffffffffffffffff168152602001908152602001600020600084815260200190815260200160002081905550505050565b610a38610bf4565b73ffffffffffffffffffffffffffffffffffffffff16610a5661032f565b73ffffffffffffffffffffffffffffffffffffffff1614610aac576040517f08c379a0000000000000000000000000000000000000000000000000000000008152600401610aa390611006565b60405180910390fd5b600073ffffffffffffffffffffffffffffffffffffffff168173ffffffffffffffffffffffffffffffffffffffff161415610b1c576040517f08c379a0000000000000000000000000000000000000000000000000000000008152600401610b13906112a1565b60405180910390fd5b610b2581610bfc565b50565b60003411610b6b576040517f08c379a0000000000000000000000000000000000000000000000000000000008152600401610b629061130d565b60405180910390fd5b34600360003373ffffffffffffffffffffffffffffffffffffffff1673ffffffffffffffffffffffffffffffffffffffff16815260200190815260200160002060007f455448000000000000000000000000000000000000000000000000000000000081526020019081526020016000206000828254610beb919061135c565b92505081905550565b600033905090565b60008060009054906101000a900473ffffffffffffffffffffffffffffffffffffffff169050816000806101000a81548173ffffffffffffffffffffffffffffffffffffffff021916908373ffffffffffffffffffffffffffffffffffffffff1602179055508173ffffffffffffffffffffffffffffffffffffffff168173ffffffffffffffffffffffffffffffffffffffff167f8be0079c531659141344cd1fd0a4f28419497f9722a3daafe3b4186f6b6457e060405160405180910390a35050565b60008183610cce91906113b2565b905092915050565b60008183610ce4919061135c565b905092915050565b600080fd5b600073ffffffffffffffffffffffffffffffffffffffff82169050919050565b6000610d1c82610cf1565b9050919050565b610d2c81610d11565b8114610d3757600080fd5b50565b600081359050610d4981610d23565b92915050565b6000819050919050565b610d6281610d4f565b8114610d6d57600080fd5b50565b600081359050610d7f81610d59565b92915050565b60008060408385031215610d9c57610d9b610cec565b5b6000610daa85828601610d3a565b9250506020610dbb85828601610d70565b9150509250929050565b6000819050919050565b610dd881610dc5565b82525050565b6000602082019050610df36000830184610dcf565b92915050565b600060208284031215610e0f57610e0e610cec565b5b6000610e1d84828501610d70565b91505092915050565b610e2f81610d4f565b82525050565b610e3e81610d11565b82525050565b6000604082019050610e596000830185610e26565b610e666020830184610e35565b9392505050565b6000602082019050610e826000830184610e35565b92915050565b60008060408385031215610e9f57610e9e610cec565b5b6000610ead85828601610d70565b9250506020610ebe85828601610d3a565b9150509250929050565b610ed181610dc5565b8114610edc57600080fd5b50565b600081359050610eee81610ec8565b92915050565b600060208284031215610f0a57610f09610cec565b5b6000610f1884828501610edf565b91505092915050565b6000602082019050610f366000830184610e26565b92915050565b60008060408385031215610f5357610f52610cec565b5b6000610f6185828601610edf565b9250506020610f7285828601610d70565b9150509250929050565b600060208284031215610f9257610f91610cec565b5b6000610fa084828501610d3a565b91505092915050565b600082825260208201905092915050565b7f4f776e61626c653a2063616c6c6572206973206e6f7420746865206f776e6572600082015250565b6000610ff0602083610fa9565b9150610ffb82610fba565b602082019050919050565b6000602082019050818103600083015261101f81610fe3565b9050919050565b7f546f6b656e20646f6573206e6f74206578697374000000000000000000000000600082015250565b600061105c601483610fa9565b915061106782611026565b602082019050919050565b6000602082019050818103600083015261108b8161104f565b9050919050565b7f496e73756666696369656e742066756e64732e00000000000000000000000000600082015250565b60006110c8601383610fa9565b91506110d382611092565b602082019050919050565b600060208201905081810360008301526110f7816110bb565b9050919050565b60006040820190506111136000830185610e35565b6111206020830184610dcf565b9392505050565b60008115159050919050565b61113c81611127565b811461114757600080fd5b50565b60008151905061115981611133565b92915050565b60006020828403121561117557611174610cec565b5b60006111838482850161114a565b91505092915050565b7f4465706f73697420616d6f756e742067726561746572207468616e20302e0000600082015250565b60006111c2601e83610fa9565b91506111cd8261118c565b602082019050919050565b600060208201905081810360008301526111f1816111b5565b9050919050565b600060608201905061120d6000830186610e35565b61121a6020830185610e35565b6112276040830184610dcf565b949350505050565b7f4f776e61626c653a206e6577206f776e657220697320746865207a65726f206160008201527f6464726573730000000000000000000000000000000000000000000000000000602082015250565b600061128b602683610fa9565b91506112968261122f565b604082019050919050565b600060208201905081810360008301526112ba8161127e565b9050919050565b7f596f752063616e6e6f74206465706f7369742061207a65726f20616d6f756e74600082015250565b60006112f7602083610fa9565b9150611302826112c1565b602082019050919050565b60006020820190508181036000830152611326816112ea565b9050919050565b7f4e487b7100000000000000000000000000000000000000000000000000000000600052601160045260246000fd5b600061136782610dc5565b915061137283610dc5565b9250827fffffffffffffffffffffffffffffffffffffffffffffffffffffffffffffffff038211156113a7576113a661132d565b5b828201905092915050565b60006113bd82610dc5565b91506113c883610dc5565b9250828210156113db576113da61132d565b5b82820390509291505056fea26469706673582212201b5071aa5d7f4896534b85edc3c6cc04190a7a4c12d7bdc0168735dfe8b983e564736f6c634300080b0033",
  "immutableReferences": {},
  "source": "pragma solidity ^0.8.0;\n\nimport \"../node_modules/@openzeppelin/contracts/token/ERC20/IERC20.sol\";\nimport \"../node_modules/@openzeppelin/contracts/utils/math/SafeMath.sol\";\nimport \"../node_modules/@openzeppelin/contracts/access/Ownable.sol\";\n\ncontract Wallet is Ownable {\n\n    using SafeMath for uint256;\n\n    struct Token {\n        bytes32 ticker;\n        address tokenAddress;\n    }\n\n    mapping(bytes32 => Token) public tokenMapping;\n    bytes32[] public tokenList;\n\n    mapping(address => mapping(bytes32 => uint256)) public balances;\n\n    modifier tokenExists(bytes32 ticker) {\n        require(tokenMapping[ticker].tokenAddress != address(0), \"Token does not exist\");\n        _;\n    }\n\n    function addToken(bytes32 ticker, address tokenAddress) external onlyOwner {\n        tokenMapping[ticker] = Token(ticker, tokenAddress);\n        tokenList.push(ticker);\n\n    }\n\n    function deposit(uint256 amount, bytes32 ticker) external tokenExists(ticker) {\n        require(amount >= 0, \"Deposit amount greater than 0.\");\n        IERC20(tokenMapping[ticker].tokenAddress).transferFrom(msg.sender, address(this), amount);\n        balances[msg.sender][ticker] = balances[msg.sender][ticker].add(amount);\n    }\n\n    function depositETH() public payable {\n        require(msg.value > 0, \"You cannot deposit a zero amount\");\n    \n        balances[msg.sender][\"ETH\"] += msg.value;\n    }\n\n    function withdraw(uint amount, bytes32 ticker) external tokenExists(ticker) {\n        require(tokenMapping[ticker].tokenAddress != address(0));\n        require(amount <= balances[msg.sender][ticker], \"Insufficient funds.\");\n        balances[msg.sender][ticker] = balances[msg.sender][ticker].sub(amount);\n        IERC20(tokenMapping[ticker].tokenAddress).transfer(msg.sender, amount);\n    }\n}",
  "sourcePath": "/Users/admin/Documents/Ethereum201/dex/contracts/Wallet.sol",
  "compiler": {
    "name": "solc",
    "version": "0.8.11+commit.d7f03943.Emscripten.clang"
  },
  "schemaVersion": "3.4.3",
  "updatedAt": "2022-01-27T23:29:56.130Z",
  "devdoc": {
    "kind": "dev",
    "methods": {
      "owner()": {
        "details": "Returns the address of the current owner."
      },
      "renounceOwnership()": {
        "details": "Leaves the contract without owner. It will not be possible to call `onlyOwner` functions anymore. Can only be called by the current owner. NOTE: Renouncing ownership will leave the contract without an owner, thereby removing any functionality that is only available to the owner."
      },
      "transferOwnership(address)": {
        "details": "Transfers ownership of the contract to a new account (`newOwner`). Can only be called by the current owner."
      }
    },
    "version": 1
  },
  "userdoc": {
    "kind": "user",
    "methods": {},
    "version": 1
  }
}